:020000021000EC
:10B0000000400020B1190200F1190200F3190200FA
:10B010000000000000000000000000000000000030
:10B02000000000000000000000000000F519020010
:10B030000000000000000000F7190200F9190200EA
:10B04000FB190200FB19020069DA0100FB1902007A
:10B05000FB1902000000000085D301000DC90100AA
:10B06000FB190200FB190200FB190200FB19020088
:10B07000FB190200FB190200FB190200FB19020078
:10B08000FB1902008DC20100FB190200FB1902002E
:10B09000D9C20100FB190200BD180200FB19020011
:10B0A000FB190200FB190200000000000000000074
:10B0B0000000000000000000000000000000000090
:10B0C00010B5064C2378002B07D1054B002B02D07E
:10B0D000044800E000BF0123237010BDD0240020ED
:10B0E00000000000701E020008B5084B002B03D0C2
:10B0F0000748084900E000BF07480368002B00D15B
:10B1000008BD064B002BFBD09847F9E70000000074
:10B11000701E0200D4240020CC2400200000000077
:10B12000164B002B00D1144B9D46402292029A1AD6
:10B13000924600218B460F461348144A121A00F01B
:10B1400067F80F4B002B00D098470E4B002B00D018
:10B1500098470020002104000D000D48002802D06F
:10B160000C4800E000BF00F02DF82000290003F09B
:10B170005FFA00F011F8C04600000800004000200F
:10B180000000000000000000D0240020242900203E
:10B190000000000000000000084B10B5041C002B4C
:10B1A00002D0002100E000BF054B1868836A002B25
:10B1B00000D09847201C00F033F8C0460000000083
:10B1C000301D02000E4B70B500251E1C0D4CE41AFC
:10B1D000A410A54204D0AB00F35898470135F8E716
:10B1E00006F098FD084B00251E1C084CE41AA4101C
:10B1F000A54204D0AB00F35898470135F8E770BD7D
:10B20000C4240020C4240020C4240020C82400201A
:10B21000031C8218934202D019700133FAE7704779
:10B22000FEE7C04690B589B000AF78601F23FB18D9
:10B2300000221A7055E0304B1A681F23FB181B7848
:10B24000DB00D318BB61BB691B781A1C0123934038
:10B250007B612A4B1B687A6913403BD07B69DA43D8
:10B26000264B1B681A40254B1A60BB691B781322BA
:10B27000BC18181C02F076F8031C2370BB691B78FD
:10B280001A1C012393401A1C1D4B1B6813401322E8
:10B29000BA181278B96909788A4093421AD11323EF
:10B2A000FB181B78BA695278013A51424A41D2B22E
:10B2B0009B1A5A425341DBB2FB60BB695B68002BAF
:10B2C00008D0BB695B68BA691178FA68D2B2081C09
:10B2D000111C98471F23FB181A781F23FB180132F3
:10B2E0001A70084B1B781F22BA1812789A42A2D300
:10B2F000BD4609B090BDC046EC2400201C250020AE
:10B3000018250020F024002080B584B000AF7860BC
:10B310000A1CFB1C1A707B6801229A40131CFB60FC
:10B320001E4B181C01F0EAF8031CBB60BB68002B25
:10B3300000D030E01A4B1B68FA68134024D17B68B8
:10B34000181C02F00FF8031E06D0164B1A68FB6893
:10B350001A43144B1A6006E0FB68DA43114B1B6872
:10B360001A40104B1A600E4B1A68FB681A430C4BBC
:10B370001A600A4A0C4B1B68101C191C002201F0B1
:10B3800085F8031CBB6006E0FB68DA43044B1B68CE
:10B390001A40034B1A60BD4604B080BDF82400205B
:10B3A0001C25002018250020F424002080B588B03A
:10B3B00000AFF8607A600B23FB180A1C1A707B68D8
:10B3C000042B01D8072362E001F0A4FE031C1A1C21
:10B3D00001235340DBB2002B08D001F059FE031CBF
:10B3E000FB61FB69002B01D0FB6950E02A4BFA6836
:10B3F0001A602A4B0B22BA1812781A70284B7A68F6
:10B400001A60284B00221A60274B00221A602DE098
:10B410000B23FB181B78DB00FA68D318BB611423DD
:10B42000FB1803221A701423FB1800225A701423ED
:10B43000FB1800229A701423FB180022DA70BB69F3
:10B440009A781423FB185A70BB691B78191C1423B3
:10B45000FA18164B081C111C1A1C01F069FE031C7B
:10B46000FB61FB69002B01D0FB6910E00B23FB188B
:10B470001B780B22BA18591E1170002BC8D10C4A28
:10B480000C4B101C00211A1C00F0B0FF031C181CF0
:10B49000BD4608B080BDC046EC240020F02400204A
:10B4A000F4240020182500201C25002009B30100E9
:10B4B000341D020025B2010080B582B000AF002328
:10B4C0007B600CE00B4B1A687B68DB00D3181B78A1
:10B4D000181C012101F096FE7B6801337B60064B4E
:10B4E0001B781A1E7B689A42ECD80023181CBD46B4
:10B4F00002B080BDEC240020F024002080B582B092
:10B5000000AF00237B600BE00D4B1A687B68DB000B
:10B51000D3181B78181C01F0FBFE7B6801337B609D
:10B52000084B1B781A1E7B689A42EDD8064B181CF4
:10B5300000F0E4FF031C181CBD4602B080BDC046ED
:10B54000EC240020F0240020F824002080B586B0F0
:10B5500000AF78600C23FB1800221A800C23FB1824
:10B5600000225A600C23FB187A689A600C23FB189F
:10B57000044A101C00211A1C00F016F8BD4606B043
:10B5800080BDC0460140000080B500AFBFF34F8FC3
:10B59000034B044ADA60BFF34F8FC046FDE7C04655
:10B5A00000ED00E00400FA0580B584B000AFF8605B
:10B5B000B9607A60FFF7E8FFBD4604B080BDC046C1
:10B5C00080B582B000AF021CFB1D1A70064BFA1D3D
:10B5D0001278111C1F220A40012191400A1C1A6096
:10B5E000BD4602B080BDC04600E100E080B582B03B
:10B5F00000AF021CFB1D1A700649FB1D1B781A1CAC
:10B600001F23134001229A40131C80228B50BD46F9
:10B6100002B080BD00E100E080B582B000AF021C46
:10B62000FB1D1A700649FB1D1B781A1C1F231340B3
:10B6300001229A4080235B00CA50BD4602B080BD03
:10B6400000E100E080B582B000AF021CFB1D1A7063
:10B650000649FB1D1B781A1C1F23134001229A4028
:10B66000C0235B00CA50BD4602B080BD00E100E0CF
:10B67000B0B582B000AF021C3960FB1D1A70FB1D13
:10B680001B787F2B2FD92D4CFB1D1B781A1C0F23E9
:10B690001340083B9908294AFB1D1B78181C0F23EF
:10B6A0000340083B9B0806339B00D3185B68FA1DD8
:10B6B0001278101C03220240D200101CFF2282408C
:10B6C000D2431A403B689B01FF200340F81D0078DD
:10B6D000051C03202840C00083401A438B1D9B009B
:10B6E000E3185A6026E0164CFB1D1B785BB29B08E2
:10B6F0001349FA1D127852B29208C0329200525881
:10B70000F91D0978081C03210140C900081CFF210C
:10B710008140C94311403A689201FF200240F81D60
:10B720000078051C03202840C00082400A43C03333
:10B730009B001A51BD4602B0B0BDC04600ED00E00E
:10B7400000E100E080B582B000AF021CFB1D1A7062
:10B75000FB1D1B787F2B16D9164AFB1D1B78191C65
:10B760000F230B40083B9B0806339B00D3185B68F4
:10B77000FA1D1278111C03220A40D200D340FF2286
:10B7800013409B0911E00C4AFB1D1B785BB29B0820
:10B79000C0339B009B58FA1D1278111C03220A40EB
:10B7A000D200D340FF2213409B09181CBD4602B0B3
:10B7B00080BDC04600ED00E000E100E080B582B051
:10B7C00000AF78607B68032213405A425341DBB2DA
:10B7D000181CBD4602B080BD80B584B000AFEFF349
:10B7E00005837B607B68DB05DB0DFB60FB68002B62
:10B7F0000BD0FB68103BBB60BB68DBB25BB2181CB4
:10B80000FFF7A0FF031CDBB200E00423181CBD46B9
:10B8100004B080BD80B582B000AF78600549A12337
:10B82000DB007A68CA5011200321FFF721FFBD46D3
:10B8300002B080BD0010014080B582B000AF164953
:10B84000D1239B0080225202CA501349C1239B007E
:10B8500080225202CA501120FFF7F4FE1120FFF798
:10B86000AFFE0D4B01221A602F237B607B68181CF2
:10B870000138C046C046C046C046C046C046C04665
:10B88000C046C046C046C046C046F1D1034B012267
:10B890001A70BD4602B080BD001001404025002056
:10B8A00080B582B000AF1120FFF7A0FE1F49D22360
:10B8B0009B0080225202CA501C49C2239B00802256
:10B8C0005202CA50194B01225A602F233B603B6839
:10B8D000181C0138C046C046C046C046C046C046D7
:10B8E000C046C046C046C046C046C046F1D10F4B18
:10B8F00001229A600E4B00221A602F237B607B6826
:10B90000181C0138C046C046C046C046C046C046A6
:10B91000C046C046C046C046C046C046F1D1054BF1
:10B9200000221A70BD4602B080BDC0460010014022
:10B930002C2500204025002080B500AF024A034B93
:10B94000D358181CBD4680BD0010014004050000FE
:10B9500080B582B000AF786039607A683B68D31AEE
:10B960001B021B0A181CBD4602B080BD80B582B008
:10B9700000AF78600349A823DB007A68CA50BD464F
:10B9800002B080BD0010014080B586B000AF786085
:10B99000284B1B68002B03D1264B7A681A6045E0C0
:10B9A0007B681A68234B1B681B689A4210D8214B8E
:10B9B0001B68204A126811687A6812688A1A1A602D
:10B9C0001C4B1A687B68DA611A4B7A681A602DE0A2
:10B9D0007B681B68FB60174B1B687B61154B1B6802
:10B9E0003B6109E03B691B68FA68D31AFB603B695D
:10B9F0007B613B69DB693B613B69002B04D03B69A0
:10BA00001A68FB689A42EDD33B69002B05D03B696D
:10BA10001A68FB68D21A3B691A607B68FA681A6078
:10BA20007B683A69DA617B697A68DA61BD4606B09B
:10BA300080BDC0462825002080B586B000AF786064
:10BA4000214B1B687B617B693B6109E03A697B683C
:10BA50009A4200D107E03B697B613B69DB693B614E
:10BA60003B69002BF2D13B69002B00D128E07A69B9
:10BA70003B699A4211D1144B1B68DA69124B1A6068
:10BA8000114B1B68002B08D1104B01229A60104B00
:10BA900000221A600F4B01221A703B691B68FB6081
:10BAA0003B69DA697B69DA617B69DB693B613B6928
:10BAB000002B05D03B691A68FB68D2183B691A60F5
:10BAC000BD4606B080BDC0462825002000100140BC
:10BAD0002C2500204125002080B500AF1120FFF764
:10BAE0009BFDBD4680BDC04680B500AF1420FFF76A
:10BAF00093FDBD4680BDC04680B584B000AF786080
:10BB0000114B1B68002B15D00F4B1A687B685969C5
:10BB10007B689B69081C191C9047031CFB60FB6831
:10BB2000BB60BB68002B04D0BB68181CFFF70EFD80
:10BB300006E005E07B685A697B689B69181C9047A2
:10BB4000BD4604B080BDC0463C25002080B584B011
:10BB500000AF2B4B1B68002B4FD000237B60FFF7FF
:10BB6000EBFE021C274B1B68101C191CFFF7F0FE94
:10BB7000031CBB60224B1B68FB601FE0FB681A685C
:10BB8000BB689A4200D91CE0FB681B68BA68D31AEC
:10BB9000BB60FB681B687A68D3187B60FB683B60FE
:10BBA000FB68DB69FB603B681B7C002B06D03B68B5
:10BBB00000221A743B68181CFFF79EFFFB68002BDD
:10BBC000DCD1114B1A78114B1B789A420CD10F4BD8
:10BBD0001B780133DAB20D4B1A700C4B1B78022B19
:10BBE00002D10A4B00221A70084B1B781A1C084B12
:10BBF00092007968D150FFF777FFBD4604B080BD51
:10BC0000282500202C25002038250020392500205B
:10BC10003025002080B582B000AF7860184B1A78CC
:10BC2000184B1B789A4223D0154B1B780133DAB29C
:10BC3000134B1A70124B1B78022B02D1104B0022AF
:10BC40001A700F4B1B781A1C0F4B9200D2587B684E
:10BC50001A607B681A680D4B1B68D2180B4B1A6070
:10BC60000A4B1B681B021A0A084B1A60012303E0E7
:10BC70007B6800221A600023181CBD4602B080BDFC
:10BC80003825002039250020302500202C250020D3
:10BC900080B586B000AF364B1B683B611723FB189D
:10BCA000344A12781A704EE0334B1A681723FB1887
:10BCB0001B78DB00D318FB601623FB18FA68127898
:10BCC0001A7039E0FB6859681623FB181A78131CA0
:10BCD0005B009B18DB00CB18BB601623FB181A789F
:10BCE0001623FB1801321A70FB689B781622BA18CB
:10BCF00012789A4203D11623FB1800221A70BB68EF
:10BD00001B78022B02D0032B10D014E0BB685B68B9
:10BD1000181CFFF791FE0FE0154B1B687B607B68DA
:10BD200000221A747B68DA69114B1A60104B1B6889
:10BD3000002BF1D100E0C046FB685B781622BA18F0
:10BD400012789A42BED11723FB181B781722BA1813
:10BD5000591E1170002BA7D1054B1A683B69D31AE5
:10BD60005A1E9341DBB2181CBD4606B080BDC046CA
:10BD700028250020202500202425002080B588B01B
:10BD800000AFF860B9607A600023FB6138E0204BB7
:10BD90001B68BB61BB691A68FB689A4206D9BB691C
:10BDA0001A68FB68D21ABB691A602DE0BB691B6870
:10BDB000FA68D31AFB60BB691B68FA69D318FB6188
:10BDC000BB6900221A60124B1B687B61BB69DA6990
:10BDD0000F4B1A60BB69DB68002B11D0BA68FB6996
:10BDE000D3181B021A0ABB695A60BB69DA68BB69BF
:10BDF0009A607B681A68BB69DA617B687A691A6045
:10BE0000034B1B68002BC2D1BD4608B080BDC046A5
:10BE10002825002080B588B000AF78605C4B1B6897
:10BE20007B611F23FB185B4A12781A709BE05A4B08
:10BE30001A681F23FB181B78DB00D3183B6187E0CF
:10BE40007B68002B05D07B68BB61BB69DB697B60CD
:10BE50003CE03B695A683B691B78191C0B1C5B0072
:10BE60005B18DB00D318FB603B691B780133DAB247
:10BE70003B691A703B691A783B699B789A4202D1F8
:10BE80003B6900221A70FB685B68BB61FB681B782A
:10BE9000012B03D1BB691B7C002B00D058E0FB6851
:10BEA0009A68BB695A60FB68DA68BB699A60FB688C
:10BEB0001A69BB69DA60FB685A69BB699A61374BDA
:10BEC0001B78002B02D0BB6900225A60BB695A68FC
:10BED000334B1B68D31A1B021B0A324A93420ED8FB
:10BEE000BB695A682E4B1B68101C191CFFF730FDEC
:10BEF000021CBB699B68D218BB691A6018E0284B0A
:10BF00001A68BB695B68101C191CFFF721FD031C34
:10BF1000BB60BB699A68BB689A4206D9BB699A68DC
:10BF2000BB68D21ABB691A6002E0BB6900221A60C2
:10BF3000BB6900225A60BB6900229A60BB6901227A
:10BF40001A74BB690022DA61BB69181CFFF71CFD7B
:10BF50007B68002B00D073E73B691A783B695B78FC
:10BF60009A4200D06CE71F23FB181B781F22BA18D7
:10BF7000591E1170002B00D059E7054B1A687B69D8
:10BF8000D31A5A1E9341DBB2181CBD4608B080BDBF
:10BF900028250020202500202425002041250020E0
:10BFA0002C250020FEFF7F0090B589B000AF78609F
:10BFB000334B1B68002B5DD0314B1B681B68FB614A
:10BFC000FFF7BAFC031CBB612E4B1B687B61BA698F
:10BFD0007B69101C191CFFF7BBFC031C03333B617E
:10BFE000294B1B7801225340DBB2002B01D0FFF715
:10BFF00023FCFA693B69934200D2131C7A69D31877
:10C000007B617B691B021B0A7B617B69181CFFF744
:10C01000ADFCFFF791FC031CFB60FA68BB69101CC8
:10C02000191CFFF795FC031CDC1C7A69BB69101C0A
:10C03000191CFFF78DFC031C9C421AD9FFF77CFCEE
:10C04000031C181CFFF792FC2F23BB60BB68181C55
:10C050000138C046C046C046C046C046C046C0467D
:10C06000C046C046C046C046C046F1D1FFF734FDC9
:10C0700002E001E0FFF714FCBD4609B090BDC046E8
:10C08000282500202C2500204025002090B587B0D1
:10C0900000AF00237B601F4B1B683B611E4B1B687E
:10C0A000FB600B23FC183B1C181CFFF7B3FD031CA3
:10C0B00023701723FC18FFF7EBFD031C23700B23E1
:10C0C000FB181B78002B0BD039683A693B1D081C04
:10C0D000111C1A1CFFF752FE1723FB1801221A70BD
:10C0E0007B68181CFFF796FE031E03D01723FB186E
:10C0F00001221A701723FB181B78002B03D0FB6852
:10C10000181CFFF751FF054B00221A70BD4607B0FF
:10C1100090BDC0462C250020282500204125002068
:10C1200080B582B000AF78600A1CFB1C1A707B6877
:10C13000FA1C12785A70BD4602B080BD80B584B03A
:10C1400000AF786039607B685A780F23FB180132A2
:10C150001A707B689B780F22BA1812789A4203D122
:10C160000F23FB1800221A707B681B780F22BA1865
:10C1700012789A4201D1002310E03B680F22BA18CE
:10C1800012781A707B685A687B685B78191C0B1CE4
:10C190005B005B18DB00D318BB60BB68181CBD4696
:10C1A00004B080BD80B586B000AFF860B9607A6039
:10C1B0003B601C4B1A68FB68DB00D2181323FB188A
:10C1C000101C191CFFF7BAFF031C7B617B69002B55
:10C1D00001D1042322E07B6901221A707B69BA68CD
:10C1E0005A60FFF7A9FB021C7B699A607B697A6839
:10C1F000DA607B693A681A617B693A6A5A61094B6D
:10C200001A68FB68DB00D2181323FB181B78101C7C
:10C21000191CFFF785FFFFF767FC0023181CBD46BC
:10C2200006B080BD2425002080B584B000AF7860C2
:10C230003960154B1A687B68DB00D2180B23FB189A
:10C24000101C191CFFF77AFF031CFB60FB68002B16
:10C2500001D1042314E0FB6802221A70FB683A68DB
:10C260005A60094B1A687B68DB00D2180B23FB1855
:10C270001B78101C191CFFF753FFFFF735FC002338
:10C28000181CBD4604B080BD2425002080B500AF39
:10C29000104AA0235B000021D1500E4AA2235B006C
:10C2A0000021D1500B4AA4235B000021D150094A40
:10C2B000A6235B000021D150064A80235B000021A9
:10C2C000D150044A82235B000021D150FFF73EFC8D
:10C2D000BD4680BD0010014080B500AFFFF7D6FE1F
:10C2E000BD4680BD80B586B000AFF8607A603B6027
:10C2F0000B23FB180A1C1A707B68181CFFF75EFAE8
:10C30000031C1A1C01235340DBB2002B01D007236E
:10C310005AE07B68002B04D12D4B00221A600723C2
:10C3200052E0FFF7BDFA2B4B3A681A602A4B032202
:10C330001A70274B7A681A607B6818337B60002379
:10C340007B6121E0224B1A687B69DB00D3183B61DB
:10C350003B6900221A703B6900225A703B690B222C
:10C36000BA1812789A703B697A685A600B23FB18E6
:10C370001A78131C5B009B18DB001A1C7B689B1847
:10C380007B607B6901337B617B69022BDADD134BB8
:10C3900000221A60124B00221A70124B00221A70EF
:10C3A0001420FFF74FF914200321FFF761F914203F
:10C3B000FFF706F9FB68181CFFF72CFAFFF7BCFA29
:10C3C000021C094B1A600023181CBD4606B080BD34
:10C3D000242500203C2500202025002028250020A1
:10C3E00038250020392500202C25002080B586B076
:10C3F00000AFF8607A600B23FB180A1C1A70154B0B
:10C400001B68002B01D108231FE07B68002B01D1A2
:10C4100007231AE0FB68002B01D1072315E0FB6816
:10C420001B681B7C002B01D008230EE0FB681B68F7
:10C430007B617B6900221A747B690B22BA1812781F
:10C440005A747B697A685A610023181CBD4606B08D
:10C4500080BDC0462425002080B582B000AFFFF724
:10C46000BBF9031E012B02D0032B03D005E00023F0
:10C470007B6005E001237B6002E002237B60C04615
:10C480007B68181CBD4602B080BDC04690B589B01F
:10C4900002AFF860B9607A60FB687B61164B1B687D
:10C4A000002B01D1082322E0FB68002B01D10823D7
:10C4B0001DE0BB68042B01D8072318E07B695B698A
:10C4C000002B01D1082312E07B695B7C012B01D199
:10C4D000BB6800E000233B61FFF7BEFF7969BA68E3
:10C4E0003C697B680093231CFFF75CFE031C181C4F
:10C4F000BD4607B090BDC0462425002080B584B05D
:10C5000000AF78607B68FB600F4B1B68002B01D18C
:10C51000082314E07B68002B03D0FB685B69002BC9
:10C5200001D108230BE0FB6800221A74FFF794FF87
:10C53000021CFB68101C191CFFF776FE031C181C5C
:10C54000BD4604B080BDC0462425002080B582B021
:10C5500000AFEFF310833B603B687B6072B67B6893
:10C56000181CBD4602B080BD80B500AF62B6BD46A6
:10C5700080BDC04680B584B000AF7860FFF7E6FFAD
:10C58000031CFB60114B5B68002B11D10F4B012288
:10C590005A600F4A8023D3580E4A1A400B4B1A6038
:10C5A0000B4A80230B49D1507B6800221A7002E0AD
:10C5B0007B6801221A70FB68002B01D1FFF7D4FFC2
:10C5C0000023181CBD4604B080BDC0461C290020B5
:10C5D00000E100E0FC06FFBC80B584B000AF021CA7
:10C5E000FB1D1A700E4B5B68002B13D0FB1D1B78D4
:10C5F000002B0FD1FFF7AAFF031CFB60094A084B71
:10C600001B681360064B00225A60FB68002B01D1A7
:10C61000FFF7AAFF0023181CBD4604B080BDC0462A
:10C620001C29002000E100E080B582B000AF7860F6
:10C630007B68181CFFF79EFFBD4602B080BDC04658
:10C6400080B582B000AF021CFB1D1A70FB1D1B7869
:10C65000181CFFF7C1FFBD4602B080BD80B500AF1A
:10C66000034AA123DB00D358181CBD4680BDC04639
:10C670000070004080B500AF024B01221A60BD4639
:10C6800080BDC0460070004080B582B000AF7860C9
:10C690000349044A7B688B50BD4602B080BDC0464A
:10C6A000007000400405000080B582B000AF021C9D
:10C6B000BB1D1A80BB1D1B88034A9446634400229D
:10C6C0001A60BD4602B080BD0070004080B582B0E7
:10C6D00000AF021CBB1D1A80BB1D1B88054A944677
:10C6E00063441B685A1E9341DBB2181CBD4602B05E
:10C6F00080BDC0460070004080B582B000AF786059
:10C700000349C1239B007A68CA50BD4602B080BD70
:10C710000070004080B582B000AF78600349C2234A
:10C720009B007A68CA50BD4602B080BD00700040D0
:10C7300080B582B000AF021CFB1D1A70FB1D1B7878
:10C74000034A9446634401221A60BD4602B080BD8C
:10C750000070004080B500AF034AA023DB00012138
:10C76000D150BD4680BDC0460070004080B500AFCE
:10C77000034AA023DB000021D150BD4680BDC04646
:10C780000070004080B582B000AF78603960124B15
:10C790009B7C002B01D0082319E080235B00181C30
:10C7A000FFF782FF3B68002B0AD07B68002B01D18A
:10C7B0000A4B7B607B681B780720191C00F082F90C
:10C7C000054B3A681A60044B01229A740023181C26
:10C7D000BD4602B080BDC04644250020381D020081
:10C7E00080B582B000AF78603960204B9B7C022B13
:10C7F00001D1112336E01D4B02229A747B681B681D
:10C80000181CFFF741FFFFF7A5FF0120FFF782FF8C
:10C81000FFF730FF3B68002B1DD0C04680235B0034
:10C82000181CFFF753FF031C1A1C01235340DBB2F3
:10C83000002BF3D180235B00181CFFF735FFFFF7B7
:10C840000DFF031C9AB23B681A80FFF78FFF074B5E
:10C8500001229A7405E0054B0022DA600120FFF7FF
:10C860004BFF0023181CBD4602B080BD44250020AC
:10C8700090B583B000AF80235B00181CFFF714FF56
:10C88000FFF774FF204BDA681F4B5B7C5B00D4180A
:10C89000FFF7E4FE031C9BB223801B4B5B7C013340
:10C8A000DAB2194B5A74184B5A7C174B1B7C9A42BC
:10C8B00025D2FB1D00221A70134B9B685B68002B6E
:10C8C00004D1114B5A68104B9A6007E00E4B9B68DD
:10C8D0005A680D4B9A60FB1D01221A700A4B9B6827
:10C8E0001B68181CFFF7D0FEFFF734FFFB1D1B78F9
:10C8F000002B02D00020FFF71BFF002300E00123E4
:10C90000181CBD4603B090BD4425002080B586B0FC
:10C9100000AF204BDB68002B1ED180235B00181C6E
:10C92000FFF7C2FE0120FFF7F5FEFFF71FFF0C2304
:10C93000FB1801221A70FFF791FE031C9AB20C2318
:10C94000FB189A80134B01229A74124B1B680C221D
:10C95000BA18101C98471AE0FFF78AFF031E16D07A
:10C960000120FFF7D7FE3B1C00221A70094BDA6842
:10C970003B1C5A60074B1B7C9AB23B1C1A81054B2F
:10C9800001229A74034B1B683A1C101C9847BD4641
:10C9900006B080BD4425002080B582B000AF021CE7
:10C9A000FB1D1A70064BFA1D1278111C1F220A403B
:10C9B000012191400A1C1A60BD4602B080BDC046EC
:10C9C00000E100E080B582B000AF021CFB1D1A70D0
:10C9D0000649FB1D1B781A1C1F23134001229A4095
:10C9E000C0235B00CA50BD4602B080BD00E100E03C
:10C9F000B0B582B000AF021C3960FB1D1A70FB1D80
:10CA00001B787F2B2FD92D4CFB1D1B781A1C0F2355
:10CA10001340083B9908294AFB1D1B78181C0F235B
:10CA20000340083B9B0806339B00D3185B68FA1D44
:10CA30001278101C03220240D200101CFF228240F8
:10CA4000D2431A403B689B01FF200340F81D007849
:10CA5000051C03202840C00083401A438B1D9B0007
:10CA6000E3185A6026E0164CFB1D1B785BB29B084E
:10CA70001349FA1D127852B29208C03292005258ED
:10CA8000F91D0978081C03210140C900081CFF2179
:10CA90008140C94311403A689201FF200240F81DCD
:10CAA0000078051C03202840C00082400A43C033A0
:10CAB0009B001A51BD4602B0B0BDC04600ED00E07B
:10CAC00000E100E080B582B000AF021CFB1D1A70CF
:10CAD000BB1D0A1C1A70BB1D1A78FB1D1B785BB2AC
:10CAE000181C111CFFF784FFFB1D1B785BB2181C80
:10CAF000FFF768FFFB1D1B785BB2181CFFF74CFFAC
:10CB0000BD4602B080BDC04680B582B000AF021CF9
:10CB1000BB1D1A80BB1D1B88181C00F01DF8031CD0
:10CB20001B68013B5A425341DBB2181CBD4602B0A0
:10CB300080BDC04680B582B000AF021CBB1D1A800C
:10CB4000BB1D1B88181C00F007F8031C00221A608C
:10CB5000BD4602B080BDC04680B582B000AF021CA9
:10CB6000BB1D1A80BB1D1B88034A94466344181CD6
:10CB7000BD4602B080BDC0460060004080B582B0B6
:10CB800000AF78600349C1239B007A68CA50BD4654
:10CB900002B080BD0060004080B582B000AF786018
:10CBA0000349C2239B007A68CA50BD4602B080BDCB
:10CBB0000060004080B582B000AF7860044AC123B5
:10CBC0009B00D3587A681340181CBD4602B080BD44
:10CBD0000060004080B582B000AF78600849084A24
:10CBE0007B684533FF339B009B5801221A437B68C7
:10CBF0004533FF339B005A50BD4602B080BDC0464E
:10CC00000060004080B582B000AF78600849084AF3
:10CC10007B684533FF339B009B58012293431A1CCA
:10CC20007B684533FF339B005A50BD4602B080BD40
:10CC30000060004090B585B000AFF860B960FB1DA2
:10CC40001A701549144AFB684533FF339B009B5803
:10CC5000124A1A40FB684533FF339B005A500E4876
:10CC60000D4AFB684533FF339B009A58BB68190295
:10CC7000F8235B011940FB1D1B781B041C1CC023FF
:10CC80009B0223400B431A43FB684533FF339B0051
:10CC90001A50BD4605B090BD00600040FFE0FCFFAB
:10CCA00080B582B000AF7860064A7B684533FF33B9
:10CCB0009B009A58F8235B0113401B0A181CBD46C1
:10CCC00002B080BD0060004080B582B000AF7860E7
:10CCD000074A7B684533FF339B009A58C0239B0269
:10CCE00013401B0CDBB2181CBD4602B080BDC04611
:10CCF0000060004090B583B000AF78600C1C101C41
:10CD0000191CFB1C221C1A70BB1C021C1A707B1CF9
:10CD10000A1C1A70A023DB05FA1C1178BA1C1278C1
:10CD2000520011437A1C1278920011431822BA184B
:10CD30001278120211431C22BA18127812041143FD
:10CD40007A68C132FF329200D150BD4603B090BD27
:10CD500090B585B002AF78600A1CFB1C1A707A6827
:10CD6000FB1C1C780023009300230193101C00215E
:10CD70000022231CFFF7BEFFBD4603B090BDC04696
:10CD800080B584B000AF7860A023DB057A68C1323B
:10CD9000FF329200D35802229343FB60A023DB05AD
:10CDA0007A68C132FF329200F968D150BD4604B0B2
:10CDB00080BDC04680B582B000AF78600A1CFB1C05
:10CDC0001A70A023DB05A022D2057968C131FF319A
:10CDD00089008A580D4911407A68C132FF329200A9
:10CDE000D150A023DB05A022D2057968C131FF31E3
:10CDF00089008A58F91C0978090411437A68C132FC
:10CE0000FF329200D150BD4602B080BDFFFFFCFF53
:10CE100080B582B000AF7860A023DA05A223DB00E2
:10CE2000D2587B68DA40131C01221340181CBD46FF
:10CE300002B080BD80B500AFA023DA05A223DB00DD
:10CE4000D358181CBD4680BD80B582B000AF786055
:10CE5000A023DB057A68C132FF329200D258C0238A
:10CE60009B0213401B0CDBB2181CBD4602B080BDF8
:10CE700080B582B000AF78600E4A20217B68D3185D
:10CE80005B181B785BB2002B0ADB0A4A20217B6807
:10CE9000D3185B181B785BB2032B01DC012300E085
:10CEA00000231A1C01231340DBB2181CBD4602B03C
:10CEB00080BDC0465825002080B582B000AF7860A4
:10CEC000084A20217B68D3185B181B7801225BB2CB
:10CED000032B01DC00231A1CD3B2181CBD4602B080
:10CEE00080BDC0465825002080B582B000AF786074
:10CEF000064A20217B68D3185B181B78DB43DBB222
:10CF0000DB09DBB2181CBD4602B080BD58250020ED
:10CF100080B584B000AFF860B9607A601A1CFB1C61
:10CF20001A70BB68D8B2104A2021FB68D3185B186E
:10CF3000021C1A700C4BBA6892007968D150FB1C25
:10CF40001B7801225340DBB2002B09D0BB68043BA5
:10CF5000FA68D0B2044A4021D3185B18021C1A7038
:10CF6000BD4604B080BDC0465825002080B582B0C3
:10CF700000AF7860044A20217B68D3185B18FF2239
:10CF80001A70BD4602B080BD5825002080B582B021
:10CF900000AF7860054A20217B68D3185B181B78A6
:10CFA0005BB2181CBD4602B080BDC04658250020AB
:10CFB00080B582B000AF7860034B7A689200D35896
:10CFC000181CBD4602B080BD5825002080B588B031
:10CFD00000AFF860B960FB1D1A701F23FB18FF2219
:10CFE0001A70FB1D1B78002B01D0002300E00423E6
:10CFF0007B61FB1D1B78002B01D0042300E008237C
:10D000003B617B69BB6114E0104BBA699200D35855
:10D0100001330BD1F868B969BA68FB1D1B78FFF7BB
:10D0200077FF1F23FB18BA691A7006E0BB6901334A
:10D03000BB61BA693B699A42E6D31F23FB181B7890
:10D040005BB2181CBD4608B080BDC0465825002004
:10D0500080B582B000AF021CFB1D1A70FB1D1A7850
:10D060000A4B920001214942D150FB1D1B78032B32
:10D0700008D9FB1D1B78043B044A4021D3185B18D8
:10D08000FF221A70BD4602B080BDC0465825002060
:10D0900080B582B000AF1E4B44229B5C002B01D0B8
:10D0A000082331E0FB1D00221A7009E0FB1D1B78EC
:10D0B000181CFFF75BFFFB1D1A78FB1D01321A706D
:10D0C000FB1D1B781F2BF1D9FB1D00221A7009E0F4
:10D0D000FB1D1B78181CFFF7BBFFFB1D1A78FB1DFF
:10D0E00001321A70FB1D1B78072BF1D90620032192
:10D0F000FFF7E8FC80231B06181CFFF73FFD044BDD
:10D100004422012199540023181CBD4602B080BD61
:10D110005825002080B500AF044B44229B5C5A1E6A
:10D120009341DBB2181CBD4680BDC0465825002087
:10D1300090B587B000AFF860B9607A6000237B617A
:10D14000FB68181CFFF7D0FE031E02D008237B618A
:10D1500051E0BB68DB781322BC18F9687A68081CB8
:10D16000111C1A1CFFF732FF031C23701323FB183A
:10D170001B785BB201333CD0BB689B78002B04D09A
:10D18000FB68181CFFF7FCFD06E0BB685B78FA68DB
:10D19000101C191CFFF7DCFDBB68DB78002B0CD0E2
:10D1A0001323FB1800215956BB681B78FA68081C2A
:10D1B000111C1A1CFFF73EFD1DE01323FB181B7802
:10D1C0005BB2043B1322BA18127852B2043A0C49EB
:10D1D00040208A1812181178BA6812789201D2B2D7
:10D1E0000A43D0B2064A4021D3185B18021C1A70B9
:10D1F00001E004237B617B69181CBD4607B090BD2C
:10D200005825002080B586B000AF78600A1CFB1C52
:10D210001A707B68181CFFF74FFE031E3DD07B6819
:10D22000181CFFF7B3FE031C043B384A4021D318F7
:10D230005B181A781623FB181A701523FB18162290
:10D24000BA18127892091A701523FB181B78032B51
:10D250000FD1FFF7EFFD011C7B6801229A40131CE0
:10D260000B4001D0032200E002221723FB181A70A2
:10D270000AE01523FB181B78012B01D1022200E0E4
:10D2800003221723FB181A707A681723FB181B78E0
:10D29000101C191CFFF78EFD35E07B68181CFFF78A
:10D2A000E7FD031E2FD07B68181CFFF76FFE031CE1
:10D2B0003B613B699BB240339AB20E23FB1892004C
:10D2C0001A803B69181CFFF785FC0E23FB181B888E
:10D2D000181CFFF72FFCFB1C1B78002B13D07B685E
:10D2E000181CFFF753FE031C181CFFF761FE031CFC
:10D2F000BB60BB68002B06D001223B699A40131C1F
:10D30000181CFFF73BFCBD4606B080BD5825002029
:10D3100080B584B000AF78607B68181CFFF7CCFD47
:10D32000031E05D07B68181C0021FFF743FD16E0A3
:10D330007B68181CFFF79CFD031E10D07B68181C2F
:10D34000FFF724FE031CFB60FB68181CFFF75AFC68
:10D350000122FB689A40131C181CFFF71DFCBD46F8
:10D3600004B080BD80B582B000AF78607B68181CC7
:10D37000FFF74EFD031C5A1E9341DBB2181CBD463D
:10D3800002B080BD90B593B000AF00237B64002352
:10D390003B643A23FB18802252001A8001237B63EE
:10D3A0000023FB6324E03A23FB181B88181CFFF7BB
:10D3B000ABFB031E0FD07B6B181CFFF7FBFB031EA0
:10D3C00009D03A23FB181B88181CFFF7B3FB7A6CB3
:10D3D0007B6B13437B647B6B5B007B633A23FB18A3
:10D3E0003A22BA18128804321A80FB6B0133FB63AD
:10D3F000FB6B032BD7D9BE235B00181CFFF784FB04
:10D40000031E0DD0BE235B00181CFFF793FB7B6C43
:10D410008022120613437B64FFF70CFD031C3B6460
:10D420007B6C0F2213402DD001237B630023FB6311
:10D4300025E07B6B7A6C13401BD0FB6B181CFFF74D
:10D440002FFC031C7B622323FC18FB6B181CFFF7CB
:10D450003BFC031C2370FB6B181CFFF7A9FD031C8E
:10D46000FB61796A2323FB181A78FB69081C111CDD
:10D4700098477B6B5B007B63FB6B0133FB63FB6B50
:10D48000032BD6D97B6C002B00DBBEE03323FB18CB
:10D4900000221A700023FB6201235B42BB6233232C
:10D4A000FB1800221A700023FB638EE0584A4021CB
:10D4B000FB6BD3185B181A781B23FB181A701B23FD
:10D4C000FB181B78C02293437B61514A4021FB6BC0
:10D4D000D3185B181B785BB2013300D172E07B6913
:10D4E000BA6ADA40131C0122134000D16AE0132308
:10D4F000FB181B22BA18127892091A707B69181C43
:10D50000FFF744FD031C181CFFF752FD031CFB60D2
:10D51000FB68002B04D11323FB181B78032B51D17C
:10D520007B6901229A40131C7B631323FB181B7831
:10D53000032B03D1FA6A7B6B1343FB620B23FC18AA
:10D540007B69181CFFF780FC031C23707B6B3A6C13
:10D55000134004D00B23FB181B78022B08D07B6BE5
:10D560003A6C13402ED10B23FB181B78032B29D1C7
:10D570001323FB181B78032B19D10B23FB181B78E3
:10D58000022B01D1032200E002220A23FB181A70A9
:10D590007A690A23FB181B78101C191CFFF70AFC78
:10D5A0003323FB183322BA18127801321A70FB6841
:10D5B000002B07D079691323FB181A78FB68081C25
:10D5C000111C9847FB6B0133FB63FB6B032B00D8EB
:10D5D0006CE73323FB181B78002B10D0FFF72AFCD5
:10D5E000031C7B607A683B6C9A4204D13323FB189E
:10D5F00000221A7003E07B683B64FB6ABB62332342
:10D60000FB181B78002B00D049E7BD4613B090BD36
:10D610005825002080B582B000AF78600A1CBB1C82
:10D620001A80BB1C1B887A68D31800221A60BD467A
:10D6300002B080BD80B582B000AF78600A1CBB1C10
:10D640001A80BB1C1B887A68D3181B685A1E93412A
:10D65000DBB2181CBD4602B080BDC04680B582B0AA
:10D6600000AF786039607A68C1239B00D3583A686C
:10D6700013405A1E9341DBB2181CBD4602B080BD58
:10D6800080B582B000AF786039607A68C2239B00B1
:10D690003968D150BD4602B080BDC04680B584B067
:10D6A00000AF78607A689023DB00D358FB607A681B
:10D6B0009023DB00F968D150FB68181CBD4604B00C
:10D6C00080BDC04680B582B000AF78607A68A32381
:10D6D000DB00D358DBB2181CBD4602B080BDC0468B
:10D6E00080B582B000AF78600A1CFB1C1A70FB1C6E
:10D6F0001A787B6802495A50BD4602B080BDC046C8
:10D700001C05000080B582B000AF78600A1CFB1CCD
:10D710001A70FB1C1B787A68D31801221A60BD4668
:10D7200002B080BD80B582B000AF104A8E235B008E
:10D73000101C191CFFF76EFF0D4B9B680C4A928A58
:10D7400092B29A18FB1D12781A70094B9B8A9BB2F1
:10D7500001339AB2064B9A82044AFB1D1B78101CB7
:10D76000191CFFF7BDFFBD4602B080BD0020004080
:10D77000A025002098B500AF154BDB7D002B0BD109
:10D78000144A84235B00101C191CFFF743FF114B44
:10D79000181CFFF797FF19E00E4A84235B00101C4A
:10D7A000191CFFF737FF0A4BDB68094A527ED2B2D9
:10D7B0009C18084B181CFFF785FF031C2370044BB3
:10D7C0005B7EDBB20133DAB2014B5A76BD4698BDBF
:10D7D000A02500200020004080B586B000AF021CCC
:10D7E0003960FB1D1A700823FB1801221A700823E8
:10D7F000FB18FA1D12781A720823FB183A685A604F
:10D80000054B5A68044B1B6808217918081C191C21
:10D810009047BD4606B080BDA025002080B586B0EB
:10D8200000AF021CFB1D1A700823FB1800221A709F
:10D830000823FB18FA1D12781A720A4B9A680823FB
:10D84000FB185A60074B00229A75064B5A68054B25
:10D850001B6808217918081C191C9047BD4606B0A2
:10D8600080BDC046A025002080B586B000AF7C4AB0
:10D8700080239B00101C191CFFF7F0FE031E43D0F1
:10D88000774A92235B00101C191CFFF7D3FE031E7E
:10D890003AD0734A92235B00101C191CFFF7BAFEA2
:10D8A0006F4A81239B00101C191CFFF7E9FE6D4B8A
:10D8B0009B7E01225340DBB2002B04D0684B181C26
:10D8C0000421FFF71FFF3B1C02221A70644B181C37
:10D8D000FFF7E4FE021C3B1CDA60624BDA7D3B1C66
:10D8E0001A72604BDA683B1C5A605E4B0022DA7594
:10D8F0005C4B00221A765B4B5A685A4B1B68391CEA
:10D90000081C191C90475AE0554B181C0421FFF7BE
:10D91000A5FE031E53D0524A84235B00101C191C21
:10D92000FFF788FE031E4AD0FFF724FF4D4BDA7D38
:10D930004C4B5B7EDBB29A4241D14A4B1B7E002BA3
:10D940001ED0484BDB687B611323FB18454A527E8F
:10D950001A70444B1A7E434BDA75424B1A69414B9D
:10D96000DA60404B00221A763E4B00225A7613238F
:10D97000FB181A787B69101C191CFFF72DFF1EE09D
:10D98000384B9B7E01225340DBB2002B04D0344B3A
:10D99000181C0421FFF7B6FE314A81239B00101C9E
:10D9A000191CFFF76DFE2F4B0022DA752D4B5B7EA5
:10D9B000DAB22C4BDB68101C191CFFF70DFF284A4C
:10D9C0008E235B00101C191CFFF734FE031E1AD0B7
:10D9D000244B9B8A9AB2234B9B7D9BB29A4202D2E4
:10D9E000FFF7A0FE0FE01E4A8E235B00101C191CDF
:10D9F000FFF710FE1B4B9B7D002B04D0194B9B7D2A
:10DA0000181CFFF70BFF164AA2235B00101C191C01
:10DA1000FFF710FE031E1FD0114AA2235B00101C4B
:10DA2000191CFFF7F7FD0F4B9B7E002B04D00C4B0E
:10DA3000181C0021FFF766FE0A4BDB7D002B0BD084
:10DA4000084B0022DA75074B5B7EDAB2054BDB68C8
:10DA5000101C191CFFF7C0FEBD4606B080BDC046B5
:10DA600000200040A025002080B500AFFFF7FCFE9D
:10DA7000BD4680BD80B586B000AF021CFB1D1A708C
:10DA8000BB1D0A1C1A701723FB1800221A700023F2
:10DA90003B6102E03B6901333B613B69032B07D8E3
:10DAA000414B3A699200D258FB1D1B789A42F1D142
:10DAB0003B69032B65D8BB1D1B78012B04D0022BBF
:10DAC00055D0002B36D05CE01723F91837483A6957
:10DAD000131C5B009B181B5C0B7034493A69131CC8
:10DAE0005B009B18CB185B78002B16D03049314B6C
:10DAF0001A68131C9B009B185B001A1C2E4B081CF9
:10DB0000111C1A1CFEF7C2FC031CFB60FB68002BF7
:10DB100003D1294BFA1D12781A7024493A69131C53
:10DB20005B009B18CB189978244A3B69D3180A1CD0
:10DB30001A7026E01E4B181CFEF7E0FC1F4A3B69DA
:10DB4000D318197819483A69131C5B009B18C3183D
:10DB50009B7899420AD11723F91814483A69131C83
:10DB60005B009B18C3189B780B700AE009E0172331
:10DB7000F9180E483A69131C5B009B18C3185B78B0
:10DB80000B701723FB181B78002B0AD00C4B1B685B
:10DB9000002B06D00A4B1B681722BA181278101CEB
:10DBA0009847BD4606B080BD481D020010260020E3
:10DBB0001C260020C02500203C26002040260020F6
:10DBC0000C26002080B582B000AF78607B681B789F
:10DBD000181C0221FFF74EFFBD4602B080BDC046B3
:10DBE00090B589B000AF021CFB1D1A700023FB61C9
:10DBF0000023BB61FB1D1B78172B00D926E39A007D
:10DC0000D94BD3181B689F46A023DA05D74B1B6856
:10DC1000D94380239B050B40D5495350A023DA05F7
:10DC2000A123DB000021D150D24BFA1D12781A70CB
:10DC30000DE3A023DA05A123DB000021D150A023AE
:10DC4000DB05CB4A00219950A023DB05CA4A9A582C
:10DC500080239B05134016D1A023DA05A123DB0006
:10DC600080218905D150A023DB05C14A00219950AC
:10DC7000FB1D1B78022B02D1FA235B0001E0FA2383
:10DC80001B01BB610EE0A023DB05B9498022920590
:10DC90005A50A023DA05A123DB000021D150FA233A
:10DCA0005B00BB61B34BFA1D12781A70B34CBB69B1
:10DCB000181C642103F0A2FE031C1A1CB04B1B6845
:10DCC0005343201C191C0022FEF7E0FB031CFB61E0
:10DCD000BDE2A023DA05A123DB000021D150A0235F
:10DCE000DB05A34A00219950A023DB05A24A9A58DC
:10DCF00080239B05134016D1A023DA05A123DB0066
:10DD000080218905D150A023DB05994A0021995033
:10DD1000FB1D1B78032B02D1C8239B0001E0FA23D3
:10DD20001B01BB6114E0A023DB0591498022920511
:10DD30005A50A023DA05A123DB000021D150FB1D9E
:10DD40001B78032B01D1C82301E0FA235B00BB61E0
:10DD5000884BFA1D12781A70884CBB69181C642114
:10DD600003F04CFE031C1A1C854B1B685343201CFC
:10DD7000191C0022FEF78AFB031CFB6167E2A0234B
:10DD8000DA05A123DB000021D150A023DB05784A6E
:10DD900000219950A023DB05774A9A5880239B05E0
:10DDA00013400FD1A023DA05A123DB0080218905D0
:10DDB000D150A023DB056E4A00219950FA231B01A4
:10DDC000BB610EE0A023DB056949802292055A5011
:10DDD000A023DA05A123DB000021D150FA235B0048
:10DDE000BB61644BFA1D12781A70644CBB69181C35
:10DDF000642103F003FE031C1A1C614B1B68534390
:10DE0000201C191C0022FEF741FB031CFB611EE2D3
:10DE1000A023DA05A123DB000021D150A023DB05DC
:10DE2000534A00219950A023DB05534A9A58802376
:10DE30009B05134015D1A023DA05A123DB00802127
:10DE40008905D150A023DB05494A00219950FB1DCB
:10DE50001B78052B01D1C82301E0FA231B01BB610C
:10DE600014E0A023DB054249802292055A50A023EA
:10DE7000DA05A123DB000021D150FB1D1B78052B07
:10DE800001D1C82301E0FA235B00BB61394BFA1DC5
:10DE900012781A70394CBB69181C642103F0AEFD6E
:10DEA000031C1A1C364B1B685343201C191C0022F0
:10DEB000FEF7ECFA031CFB61C9E1A023DA05A123FC
:10DEC000DB000021D150A023DB05294A0021995015
:10DED000A023DB05284A9A5880239B0513400CD1C8
:10DEE000A023DA05A123DB0080218905D150A023DE
:10DEF000DB051F4A002199500BE0A023DB051C49DC
:10DF0000802292055A50A023DA05A123DB000021CC
:10DF1000D150184BFA1D12781A70184A184B1B680A
:10DF2000101C191C0022FEF7B1FA031CFB618EE1E4
:10DF3000A023DA05A123DB000021D150A023DB05BB
:10DF40000B4A00219950A023DB0509498022920544
:10DF50005A50A023DA05A123DB000021D150054B44
:10DF6000FA1D12781A7072E1781D0200C82500208F
:10DF70000C050000BC25002004050000CC25002075
:10DF8000C0250020A023DB05B34A9B587B61A0235A
:10DF9000DA057B69D94380239B051940A123DB0067
:10DFA000D150A023DB057969802292050A40AB4954
:10DFB0005A50AB4AAB4B1B68101C191C0022FEF7D1
:10DFC00065FA031CFB6142E1A023DB05A24A9B58D2
:10DFD0003B61A023DA053B69D94380239B051940A7
:10DFE000A123DB00D150A023DB05396980229205F3
:10DFF0000A409A495A509A499A4B1A68131C9B0036
:10E000009B18081C191C0022FEF740FA031CFB6138
:10E010001DE1A023DB05904A9B58FB60A023DA0595
:10E02000FB68D94380239B051940A123DB00D15015
:10E03000A023DB05F968802292050A4087495A50DF
:10E04000874A884B1B68101C191C0022FEF71EFA19
:10E05000031CFB61FBE0A023DB057F4A9B58BB60F0
:10E06000A023DA05BB68D94380239B051940A1236F
:10E07000DB00D150A023DB05B968802292050A405D
:10E0800076495A507649774B1A68131C9B009B18A7
:10E09000081C191C0022FEF7F9F9031CFB61D6E0ED
:10E0A000A023DB056D49802292055A50A023DA0592
:10E0B000A123DB000021D1506B4BFA1D12781A709E
:10E0C000C5E06A4B181CFEF719FA031CFB61FB1D27
:10E0D0001B781122D31ABB61BB69002B2DD0FB69C1
:10E0E000002B2AD1624B802292051A60BB69012B5A
:10E0F00013D95E4CBB69C8225343181C642103F03A
:10E100007DFC031C1A1C574B1B685343201C191C15
:10E110000022FEF7BBF9031CFB61A023DA05544B78
:10E12000196880239B050B404C495350A023DA0506
:10E13000A123DB000021D15089E0A023DA054C4B5C
:10E14000196880239B051940A123DB00D150A0232F
:10E15000DB05424A00219950454B00221A6076E0C7
:10E16000A023DA05A123DB0080218905D150A0235B
:10E17000DB053A4A002199503B4BFA1D12781A7080
:10E1800065E0A023DA05A123DB000021D150A02304
:10E19000DB05324A00219950A023DB052F4980225C
:10E1A00092055A50A023DA05A123DB000021D150AB
:10E1B0002D4BFA1D12781A7049E0A023DA05A1232D
:10E1C000DB000021D150A023DB05244A0021995017
:10E1D000A023DB052149802292055A50A023DA05AD
:10E1E000A123DB000021D1501F4BFA1D12781A70B9
:10E1F0002DE0A023DA05A123DB000021D150A023CC
:10E20000DB05164A00219950A023DB051349802223
:10E2100092055A50A023DA05A123DB000021D1503A
:10E22000114BFA1D12781A7011E0A023DB050B497F
:10E23000802292055A50A023DA05A123DB00002199
:10E24000D150094BFA1D12781A7000E0C046FB69E4
:10E25000181CBD4609B090BD040500000C05000067
:10E26000CC250020C0250020BC250020EC25002066
:10E27000C825002080B582B000AF7860064B1B68CF
:10E280000122134004D0054B1B78181CFFF7A8FC93
:10E29000BD4602B080BDC046C4250020BC2500207C
:10E2A00080B584B000AF7860A023DB050B4A9B5893
:10E2B000FB60A023DA05FB68D94380239B05194046
:10E2C000A123DB00D150A023DB05F9688022920551
:10E2D0000A4003495A50BD4604B080BD0405000001
:10E2E0000C05000080B584B000AF021CFB1D1A7045
:10E2F0000023FB60084B1B680122134006D0FB1D66
:10E300001B78181CFFF76CFC031CFB60FB68181CD7
:10E31000BD4604B080BDC046C425002080B586B08F
:10E3200000AFF860B9607A6000237B613A4BBA684D
:10E330001A603A4BFA681A60394B7A681A60FB68BF
:10E340000222134033D000233B610AE03B69181CD2
:10E350000121012200F076F8031C7B613B69013347
:10E360003B613B69032B02D87B69002BEED07B69B4
:10E37000002B09D1BB685B082A4A101C04211A1C17
:10E38000FDF714F8031C7B617B69002B03D1FDF7BB
:10E3900093F8031C7B617B69002B08D1224A234B35
:10E3A000101C00211A1CFEF721F8031C7B61FB687E
:10E3B0000122134012D0A023DA05A123DB00802123
:10E3C0008905D150A023DB05194A00219950A023CB
:10E3D000DA05A323DB0080218905D1507B69002B5E
:10E3E00008D1144A144B101C00211A1CFDF7FEFF23
:10E3F000031C7B617B69002B08D1104A104B101C59
:10E4000001211A1CFDF7F2FF031C7B617B69181CBC
:10E41000BD4606B080BDC046C0250020C4250020F2
:10E420000C260020581D0200441D0200C5DB01001F
:10E430000C0500003C1D020075E20100401D0200B9
:10E44000A1E2010080B584B000AF7860081C111C07
:10E45000FB1C021C1A70BB1C0A1C1A700023FB60F8
:10E460007B68032B39D8BB1C1B78012B0BD1FB1C01
:10E470001B78012B04D17B68DBB20D33DAB200E0EC
:10E480000022BB1C1A70FB1C1B78012B04D0022B32
:10E490000BD0002B13D01CE013497A68131C5B00CF
:10E4A0009B18BA1C12785A5416E00F497A68131C4C
:10E4B0005B009B18BA1CCB1812785A700CE00A4902
:10E4C0007A68131C5B009B18BA1CCB1812789A70E0
:10E4D00002E00723FB60C04601E00723FB60FB6806
:10E4E000181CBD4604B080BD1026002047DF7047D1
:10E4F000181CC04648DF7047181CC04690B583B052
:10E5000000AF78600C1C101C191CFB1C221C1A701C
:10E51000BB1C021C1A707B1C0A1C1A70A023DB0592
:10E52000FA1C1178BA1C1278520011437A1C127826
:10E53000920011431822BA181278120211431C22B9
:10E54000BA181278120411437A68C132FF3292006D
:10E55000D150BD4603B090BD80B584B002AF7860A5
:10E560007A680023009300230193101C01210122EB
:10E570000023FFF7C3FFBD4602B080BD80B582B067
:10E5800000AF7860A023DB057A68012191400A1C66
:10E5900002495A50BD4602B080BDC0460C0500007D
:10E5A00080B582B000AFFFF7A5FF031C7B607B68DE
:10E5B0003B603B68002B03D03B68181CFCF7C6FF90
:10E5C000BD4602B080BDC04680B582B000AF00231A
:10E5D0007B600EE07B68802292051A41131C0122A9
:10E5E000134003D07B68181CFFF7B6FF7B6801332C
:10E5F0007B607B681F2BEDD9A023DB0506498022B9
:10E6000092055A50A023DA05A123DB000021D15046
:10E61000BD4602B080BDC0460C05000080B500AF0D
:10E620000220FFF799FF0220FFF7A8FFBD4680BD3B
:10E6300080B586B000AF2B4B022002211A1C02F0DD
:10E64000DDFD031C7B617B693B613B69002B03D0D3
:10E650003B69181CFCF77AFF234B0F2004211A1C7E
:10E660000023FDF73FFE031CFB60FB68BB60BB683B
:10E67000002B03D0BB68181CFCF768FF0120CD21DC
:10E680000022FFF74BFE031C7B607B683B603B680E
:10E69000002B03D03B68181CFCF758FFFFF794FFD2
:10E6A000FFF7BCFF01F016FA00F048FE01F050F948
:10E6B00001F0DAF9002000F055FF01F00FF9012018
:10E6C000FFF714FF002001F03DF8084B01225242F1
:10E6D0001A8001F059FA00F0C3FEFFF761FF02F063
:10E6E000ADFEFAE744260020642600201829002009
:10E6F000A0DF7047181CC046A2DF7047181CC04638
:10E7000063DF7047181CC04680B59AB000AF7860D0
:10E710004823FA18774B111C1A1C1023081C111CD3
:10E720001A1C03F0EDFA5823FB18734A1A80482389
:10E73000FA185823FB180233101C191CFFF7E0FFCE
:10E74000031C7B667B6E3B663B6E002B03D03B6EEF
:10E75000181CFCF7FBFE2C23FB18181C00211C22A4
:10E76000FCF756FD2C23FB181A7802218A431A70F5
:10E770002C23FB181A7808210A431A702823FB1847
:10E78000181C00210322FCF743FD2823FB181A78EC
:10E790000F218A43111C01220A431A702823FB18F7
:10E7A0001A780F210A40111C10220A431A702823DC
:10E7B000FB185A780F218A43111C01220A435A7010
:10E7C0002823FB185A780F210A40111C10220A43F3
:10E7D0005A702823FB189A7806218A43111C0222BA
:10E7E0000A439A702C23FB182822BA185A612C234A
:10E7F000FB181A7810210A431A702423FB18181CDE
:10E8000000210322FCF704FD2423FB189A7806213B
:10E810008A43111C02220A439A702423FB189A7817
:10E8200010210A439A702423FB181A780F218A4377
:10E83000111C01220A431A702423FB181A780F2195
:10E840000A40111C10220A431A702423FB185A781C
:10E850000F218A43111C01220A435A702423FB18FA
:10E860005A780F210A40111C10220A435A701023B3
:10E87000FB18181C00211422FCF7CAFC1023FB18FB
:10E880005822BA181A601023FB182422BA185A60AA
:10E890001023FB1804229A811023FB1804221A81EA
:10E8A0000C23FA18154B111C1A1C0423081C111CEC
:10E8B0001A1C03F025FA1023FB180C22BA181A614F
:10E8C0007B6858887B6804332C22B9181022BA1848
:10E8D000FFF712FF031C7B667B6EFB65FB6D002B55
:10E8E00003D0FB6D181CFCF731FE0023181CBD463D
:10E8F0001AB080BDD81D0200EFBEFFFFE81D020068
:10E9000080B58AB000AF78600823FA181D4B111C3F
:10E910001A1C1023081C111C1A1C03F0F1F91823EF
:10E92000FB18194A1A800823FA181823FB18023317
:10E93000101C191CFFF7E4FE031C7B627B6A3B6220
:10E940003B6A002B03D03B6A181CFCF7FFFD7B6879
:10E9500002331822BA180120111C1A1CFFF7C8FE36
:10E96000031C7B627B6AFB61FB69002B03D0FB69A4
:10E97000181CFCF7EBFD7B68181CFFF7C5FEBD46B5
:10E980000AB080BDD81D0200CDABFFFF80B586B0B8
:10E9900000AF78607B681B7D1B029AB27B685B7D51
:10E9A0009BB213439AB21623FB181A807B689B7D97
:10E9B0001B029AB27B68DB7D9BB213439AB214238D
:10E9C000FB181A800823FB181622BA1812881A801E
:10E9D0000823FB181422BA1812885A8080235B057A
:10E9E0001A691E4B1A6080235B055B695A1E1C4B1B
:10E9F0001A601A4B1A681A4B1B6853431A1C194B9E
:10EA00001A60184B1B68181C00F00AFB1623FB1831
:10EA10001B881A041423FB181B8813433B61114BFA
:10EA20001A683B69101C191C00F028FB0C23FB180A
:10EA30000822BA1812681A600C23FA1800231188E9
:10EA40000904090C1B0C1B040B43528812041B0401
:10EA50001B0C1343181CBD4606B080BDF4280020D3
:10EA6000E428002010290020A0DF7047181CC046B1
:10EA7000A2DF7047181CC04663DF7047181CC046F1
:10EA800080B59AB000AF78604823FA18764B111C15
:10EA90001A1C1023081C111C1A1C03F031F95823EE
:10EAA000FB18724A1A804823FA185823FB180233BD
:10EAB000101C191CFFF7E0FF031C7B667B6E3B6696
:10EAC0003B6E002B03D03B6E181CFCF73FFD2C2344
:10EAD000FB18181C00211C22FCF79AFB2C23FB18A6
:10EAE0001A7802218A431A702C23FB181A780821FD
:10EAF0000A431A702823FB18181C00210322FCF774
:10EB000087FB2823FB181A780F218A43111C012246
:10EB10000A431A702823FB181A780F210A40111C87
:10EB200010220A431A702823FB185A780F218A43AF
:10EB3000111C01220A435A702823FB185A780F210E
:10EB40000A40111C10220A435A702823FB189A7895
:10EB500006218A43111C02220A439A702C23FB18B7
:10EB60002822BA185A612C23FB181A7810210A435C
:10EB70001A702423FB18181C00210322FCF748FB01
:10EB80002423FB189A7806218A43111C02220A4387
:10EB90009A702423FB189A7810210A439A70242330
:10EBA000FB181A780F218A43111C01220A431A709C
:10EBB0002423FB181A780F210A40111C10220A4343
:10EBC0001A702423FB185A780F218A43111C012242
:10EBD0000A435A702423FB185A780F210A40111C4B
:10EBE00010220A435A701023FB18181C002114220B
:10EBF000FCF70EFB1023FB185822BA181A601023DA
:10EC0000FB182422BA185A601023FB1802229A819A
:10EC10001023FB1802221A810C23FB1800221A7001
:10EC20000C23FB1800225A701023FB180C22BA1870
:10EC30001A617B6858887B6804332C22B91810222B
:10EC4000BA18FFF715FF031C7B667B6EFB65FB6D37
:10EC5000002B03D0FB6D181CFCF778FC0023181C5C
:10EC6000BD461AB080BDC046EC1D0200AAAAFFFF37
:10EC700080B59AB000AF78604823FA18764B111C23
:10EC80001A1C1023081C111C1A1C03F039F85823F5
:10EC9000FB18724A1A804823FA185823FB180233CB
:10ECA000101C191CFFF7E8FE031C7B667B6E3B669D
:10ECB0003B6E002B03D03B6E181CFCF747FC2C234B
:10ECC000FB18181C00211C22FCF7A2FA2C23FB18AD
:10ECD0001A7802218A431A702C23FB181A7808210B
:10ECE0000A431A702823FB18181C00210322FCF782
:10ECF0008FFA2823FB181A780F218A43111C01224E
:10ED00000A431A702823FB181A780F210A40111C95
:10ED100010220A431A702823FB185A780F218A43BD
:10ED2000111C01220A435A702823FB185A780F211C
:10ED30000A40111C10220A435A702823FB189A78A3
:10ED400006218A43111C02220A439A702C23FB18C5
:10ED50002822BA185A612C23FB181A7810210A436A
:10ED60001A702423FB18181C00210322FCF750FA08
:10ED70002423FB189A7806218A43111C02220A4395
:10ED80009A702423FB189A7810210A439A7024233E
:10ED9000FB181A780F218A43111C01220A431A70AA
:10EDA0002423FB181A780F210A40111C10220A4351
:10EDB0001A702423FB185A780F218A43111C012250
:10EDC0000A435A702423FB185A780F210A40111C59
:10EDD00010220A435A701023FB18181C0021142219
:10EDE000FCF716FA1023FB185822BA181A601023E1
:10EDF000FB182422BA185A601023FB1802229A81A9
:10EE00001023FB1802221A810C23FB1800221A700F
:10EE10000C23FB1800225A701023FB180C22BA187E
:10EE20001A617B6858887B6804332C22B918102239
:10EE3000BA18FFF71DFE031C7B667B6EFB65FB6D3E
:10EE4000002B03D0FB6D181CFCF780FB0023181C63
:10EE5000BD461AB080BDC046EC1D0200BBBBFFFF23
:10EE600080B58AB000AF78600823FA181F4B111CD8
:10EE70001A1C1023081C111C1A1C02F041FF182335
:10EE8000FB181B4A1A800823FA181823FB180233B0
:10EE9000101C191CFFF7F0FD031C7B627B6A3B62B0
:10EEA0003B6A002B03D03B6A181CFCF74FFB7B68C6
:10EEB00002331822BA180120111C1A1CFFF7D4FDC6
:10EEC000031C7B627B6AFB61FB69002B03D0FB693F
:10EED000181CFCF73BFB7B68181CFFF7D1FD7B6817
:10EEE000181CFFF7C5FEBD460AB080BDEC1D020030
:10EEF000EFCDFFFF80B584B000AF78607B681B7DED
:10EF00001B029AB27B685B7D9BB213439AB20C23BF
:10EF1000FB181A8080235B051A69174B1A6080233F
:10EF20005B055B699A1E154B1A60134B1A68134BED
:10EF30001B6853431A1C124B1A60114B1B681A684A
:10EF40000A23FB181A800A23FA180C23FB181288CC
:10EF50001B889A4204D10F23FB1801221A7003E088
:10EF60000F23FB1800221A700F23FB181B78181CA4
:10EF7000BD4604B080BDC046F4280020E42800202F
:10EF8000E028002080B584B000AF3B1D18603B1D19
:10EF90009B78002B04D00F23FB1801221A7003E08A
:10EFA0000F23FB1800221A700F23FB181B78181C64
:10EFB000BD4604B080BDC04680B584B000AF786067
:10EFC0007B681B7D1B027A68527D1343FB608023A4
:10EFD0005B051A690F4B1A6080235B055B699A1EFB
:10EFE0000D4B1A600B4B1A680B4B1B6853431A1CD2
:10EFF0000A4B1A60094B1B68181C00F011F8074BEC
:10F000001A68FB68101C191C00F038F8BD4604B0E3
:10F0100080BDC046F4280020E4280020E02800201D
:10F0200080B582B000AF7860124A134B0221D150F4
:10F03000C046104A8023DB00D358002BF9D00D497D
:10F040007A68A123DB00CA50C0460A4A8023DB004D
:10F05000D358002BF9D0074A074B0021D150C046A6
:10F06000044A8023DB00D358002BF9D0BD4602B000
:10F0700080BDC04600E001400405000080B582B0BC
:10F0800000AF78603960114A114B0121D150C04660
:10F090000E4A8023DB00D358002BF9D07B683A68F6
:10F0A0001A60C046094A8023DB00D358002BF9D0F0
:10F0B000064A074B0021D150C046044A8023DB009A
:10F0C000D358002BF9D0BD4602B080BD00E001400E
:10F0D0000405000073DF7047181CC0467FDF7047CF
:10F0E000181CC046A9DF7047181CC04690B58BB0ED
:10F0F00000AF78607B681B88132B4DD004DC102B8D
:10F100000BD0112B23D0F9E0512B00D16EE0522B04
:10F1100057D0502B00D1F0E0F0E07B689A88794B13
:10F120001A80784B00229A70774B00221A701220B6
:10F13000FFF7D8F8031C7B627B6A3B623B6A002BBB
:10F1400004D03B6A181CFCF701FAD7E0D6E06F4BFD
:10F15000181CFFF7BFFF031C7B627B6AFB61FB6926
:10F16000002B03D0FB69181CFCF7F0F9654B01225A
:10F1700052421A80002000F021FBFCF79DF9031C8D
:10F180007B627B6ABB61BB69002B04D0BB69181C26
:10F19000FCF7DCF9B2E0B1E05A4B1B88181C852162
:10F1A00000220023FFF79AFF031C7B627B6A7B61CE
:10F1B0007B69002B04D07B69181CFCF7C7F99DE024
:10F1C0009CE0504B1B88181C002100220023FFF7F5
:10F1D00089FF031C7B627B6A3B613B69002B04D087
:10F1E0003B69181CFCF7B2F988E087E07B689A88D5
:10F1F000444B1A800F23FB1800221A707B685B892E
:10F20000434A934252D0434A93421FD0424A9342C8
:10F2100000D071E00F23FC187B68181CFFF76AFE12
:10F22000031C2370374B0F22BA1812789A700F23E1
:10F23000FB181978334B1A885B881B041343002290
:10F240001A1C081C111C00F0CDFB55E00F23FC1804
:10F250002C4B1A885B881B04134300221A1C101CB9
:10F26000FFF790FE031C23700F23FB181B78002B65
:10F270000DD07B68181CFFF789FB031C1A1C0823A0
:10F28000FB181A600823FB18186800F025F90F23F3
:10F29000FB1819781B4B1A885B881B041343002248
:10F2A0001A1C081C111C00F09DFB25E00F23FC1804
:10F2B000144B1A885B881B04134300221A1C101C71
:10F2C000FFF760FE031C23700F23FB181B78002B35
:10F2D00003D07B68181CFFF76FFE0F23FB1819780B
:10F2E000084B1A885B881B04134300221A1C081C55
:10F2F000111C00F077FBC04600E0C046BD460BB0D5
:10F3000090BDC0461829002015290020F8280020AB
:10F31000BBBB0000EFBE0000AAAA000080B582B00F
:10F3200000AF78607B68181C01F010FE7B68181C29
:10F33000FFF7DCFEBD4602B080BDC04680B58EB092
:10F3400000AF1423FB1800221A701423FB1810229C
:10F350005A701423FB1800229A701423FB18002201
:10F36000DA701423FA182C4B101C191C48220023A5
:10F3700002F04AFA031C7B637B6B3B633B6B002B05
:10F3800003D03B6B181CFCF7E1F83B1C002001216B
:10F390001A1C02F0B1FA031CFB62FB6ABB62BB6A77
:10F3A000002B03D0BB6A181CFCF7D0F83B1C0222D0
:10F3B0001A801A4B7B627B6A181C02F0CDFA031C80
:10F3C000FB62FB6A3B623B6A002B03D03B6A181C62
:10F3D000FCF7BCF83B1C181C02F0D2FA031CFB62C1
:10F3E000FB6AFB61FB69002B03D0FB69181CFCF76F
:10F3F000ADF80B4B181C02F04DFA031CFB62FB6AC4
:10F40000BB61BB69002B03D0BB69181CFCF79EF8DD
:10F41000BD460EB080BDC046E4270020E81F002096
:10F420001DF3010080B584B000AF78600E23FB1897
:10F430007A6892881A800E23FB1800229B5E96221F
:10F44000D2005343181C054902F068FB031C1A1C28
:10F450000C23FB181A80BD4604B080BDFF030000DA
:10F4600080B584B000AF3B1D03221A703A1D094BD2
:10F47000101C191CFDF786F9031CFB60FB68BB60C0
:10F48000BB68002B03D0BB68181CFCF75FF8BD46B7
:10F4900004B080BD25F4010080B582B000AF094BF7
:10F4A000181C0021FDF79CF9031C7B607B683B6006
:10F4B0003B68002B03D03B68181CFCF747F8BD469F
:10F4C00002B080BDB024002073DF7047181CC04616
:10F4D00074DF7047181CC04680B584B000AF3B1D78
:10F4E00018600F23FB1804221A700F23FB181B78D7
:10F4F0000F22BA18591C11701A1C3B1D1B881B0ABD
:10F500009BB2D9B2164B99540F23FB181B780F22CC
:10F51000BA18591C11701A1C3B1D1B88D9B2104B0C
:10F5200099540F23FB181B780F22BA18591C11701D
:10F530001A1C3B1D5B881B0A9BB2D9B2084B99541D
:10F540000F23FB181B780F22BA18591C11701A1CB4
:10F550003B1D5B88D9B2024B9954BD4604B080BDB7
:10F56000B824002080B59AB000AF021CFB1D1A70B1
:10F570006723FB1806221A701C23FA186A4B111C09
:10F580001A1C0423081C111C1A1C02F0B9FB80234E
:10F590005B051A69654B1A6080235B055B695A1E1F
:10F5A000634B1A60614B1A68614B1B6853431A1C0A
:10F5B000604B1A605F4B1B681B681A0C6423FB18B6
:10F5C0001A805C4B1B681A686223FB181A8061233F
:10F5D000FB1804221A706123FB181B786122BA18E9
:10F5E000591C11701A1C6423FB181B881B0A9BB240
:10F5F000D9B2514B99546123FB181B786122BA1878
:10F60000591C11701A1C6423FB181B88D9B24A4B71
:10F6100099546123FB181B786122BA18591C117088
:10F620001A1C6223FB181B881B0A9BB2D9B2424BDF
:10F6300099546123FB181B786122BA18591C117068
:10F640001A1C6223FB181B88D9B23B4B9954142314
:10F65000FB18394A5A601423FB180A221A8008231F
:10F66000FB18364A1A800823FB181422BA180433F0
:10F6700003CA03C32023FB18181C00213822FBF700
:10F68000C7FD2023FB1800221A702023FB1800223C
:10F690009A702023FB186722BA181278DA70202398
:10F6A000FB1801221A822023FB181C22BA185A6167
:10F6B0002023FB180822BA189A622023FB182C2258
:10F6C000012199542023FB18181C002101F0D4F9C2
:10F6D000031CFB65FB6DBB65BB6D002B03D0BB6DD5
:10F6E000181CFBF733FF164B181C00211822FBF7E0
:10F6F0008FFDFB1D1B78002B03D0114B00221A70CD
:10F7000002E00F4B03221A700D4B00225A600C4B83
:10F7100000221A720A4BC822D2001A82084B002219
:10F720005A82BD461AB080BDFC1D0200F42800209C
:10F73000E428002010290020B8240020BBCAFFFFC5
:10F74000F828002080B586B000AF021CFB1D1A709F
:10F75000194B181CFFF7B8FE031C7B617B693B61EA
:10F760003B69002B03D03B69181CFBF7EFFEFB1D28
:10F770001B78002B0FD00220FEF7B4FD031C7B6129
:10F780007B69FB60FB68002B04D0FB68181CFBF74F
:10F79000DDFE0EE00DE00020FEF7A4FD031C7B6102
:10F7A0007B69BB60BB68002B03D0BB68181CFBF7F0
:10F7B000CDFEBD4606B080BDF828002080B582B0E1
:10F7C00000AF021CFB1D1A70FB1D1B785A1E9341D3
:10F7D000DAB2084B1A70FFF77BFEFB1D1B78181C72
:10F7E000FFF7C0FEFB1D1B78181CFFF7ABFFBD46E3
:10F7F00002B080BD1529002080B584B000AF1A4B3F
:10F800001B78002B2DD0194B1B780133DAB2174B24
:10F810001A70164B1B78092B23D90020FFF7CEFF57
:10F82000114B00221A70114B00221A700020FEF7B3
:10F8300059FD031CFB60FB68BB60BB68002B03D059
:10F84000BB68181CFBF782FEFBF736FE031CFB604F
:10F85000FB687B607B68002B03D07B68181CFBF780
:10F8600075FEBD4604B080BD152900201429002076
:10F8700076DF7047181CC04677DF7047181CC046FB
:10F880007ADF7047181CC04680B584B000AF78603E
:10F890007B681B78002B10D1094B1B88181C3B215F
:10F8A000FFF7E6FF031CFB60FB68BB60BB68002B37
:10F8B00003D0BB68181CFBF749FEBD4604B080BDF1
:10F8C0001829002080B582B000AF78607B68181CD2
:10F8D000FBF73CFEBD4602B080BDC04680B58AB095
:10F8E00000AF3B1D181C00211C22FBF791FC3B1DA7
:10F8F00000221A603B1DA02292015A603B1DF0229B
:10F9000012029A603B1D03221A733B1D0022DA810A
:10F910003B1D00221A743B1D0B4A5A613B1D0B4ACA
:10F920009A613B1D181C01F0CFF9031C7B627B6AB6
:10F930003B623B6A002B03D03B6A181CFBF706FEB8
:10F94000BD460AB080BDC04689F80100C5F8010077
:10F9500080B586B000AF3B1C1A780F218A43111C7A
:10F9600001220A431A703B1C1A780F210A40111C0D
:10F9700010220A431A703B1D181C00210822FBF7B5
:10F9800047FC3B1D10221A803B1D3C225A803B1D28
:10F9900000229A803B1DC8225200DA800020FFF727
:10F9A0006BFF031C7B617B693B613B69002B03D0D0
:10F9B0003B69181CFBF7CAFD3B1D181CFFF760FFD5
:10F9C000031C7B617B69FB60FB68002B03D0FB6839
:10F9D000181CFBF7BBFDBD4606B080BDA8DF704715
:10F9E000181CC04680B588B000AF021C3B1C1960D3
:10F9F000FB1D1A700823FB1802221A70FB1D1B78CE
:10FA0000002B16D00823FB189A7901210A439A711A
:10FA10000823FB1800221A810823FB1800225A81B0
:10FA20000823FB180022DA600823FB1800229A80C2
:10FA300004E00823FB180422FF329A803B1C1A883A
:10FA40000823FB18101C191CFFF7C8FF031CFB61DF
:10FA5000FB69BB61BB69002B03D0BB69181CFBF7BA
:10FA600075FDBD4608B080BD80B500AF044B181CC5
:10FA7000FFF7F6F9034B181CFEF742FFBD4680BDA9
:10FA8000E8280020D428002080B584B000AF021CF4
:10FA9000FB1D1A70BB1D0A1C1A70FBF72FFD031CFF
:10FAA000FB60FB68BB60BB68002B03D0BB68181C05
:10FAB000FBF74CFDBB1D1B78002B05D0044B00222F
:10FAC0001A700120FFF77AFEBD4604B080BDC04623
:10FAD0001429002080B582B000AF0D4AA0239B01FD
:10FAE000101C01211A1CFBF761FC031C7B60FBF757
:10FAF000E3FC031C7B607B683B603B68002B03D00E
:10FB00003B68181CFBF722FDBD4602B080BDC04615
:10FB1000001E020080B500AF064B002000211A1C19
:10FB200001F0B4FB044B002000211A1C01F0AEFBD5
:10FB3000BD4680BD99F40100F9F7010080B582B09F
:10FB400000AF7860FFF7E6FFBD4602B080BDC0465B
:10FB500080B582B000AF0A4A0A4B101C01211A1C62
:10FB6000FCF744FC031C7B607B683B603B68002B1C
:10FB700003D03B68181CFBF7E9FCBD4602B080BD12
:10FB8000081E02003DFB010080B582B000AFFFF708
:10FB9000DFFF0B4A80235B01101C191C0022FCF7BD
:10FBA00075FC031C7B607B683B603B68002B03D0CB
:10FBB0003B68181CFBF7CAFCBD4602B080BDC046BE
:10FBC0002C28002071DF7047181CC04672DF704778
:10FBD000181CC04679DF7047181CC0467DDF70478F
:10FBE000181CC04665DF7047181CC04680B582B03F
:10FBF00000AF021C3960BB1D1A80BB1D1B88DAB226
:10FC00003B681A703B680133BA1D1288120A92B21F
:10FC1000D2B21A700223181CBD4602B080BDC04685
:10FC200080B586B000AFF860B9607A601A1CBB1C62
:10FC30001A807B681B8812331A1CBB1C1B889A42D3
:10FC400001D90C233FE07B681B881A1CBB689B18FA
:10FC500011221A707B681B8801339AB27B681A8064
:10FC60007B681B881A1CBB689B1810221A707B6863
:10FC70001B8801339AB27B681A801723FB180F2266
:10FC80001A701AE07B681B881A1CBB689B18172225
:10FC9000BA18127852B2F9688A5C1A701723FB18E6
:10FCA0001B78DBB2013BDAB21723FB181A707B68B2
:10FCB0001B8801339AB27B681A801723FB181B78C4
:10FCC0007F2BDFD90023181CBD4606B080BDC0467F
:10FCD00080B584B000AFB9607A60191C0F23FB189F
:10FCE000021C1A700C23FB180A1C1A807B681B88E4
:10FCF000DA1C0C23FB181B889A4201D90C2350E014
:10FD00007B681B881A1CBB689B1802221A707B68D0
:10FD10001B8801339AB27B681A807B681B881A1C87
:10FD2000BB689B181C221A707B681B8801339AB22F
:10FD30007B681A800F23FB181B78022B10D002DC83
:10FD4000012B05D024E0032B12D0042B18D01FE088
:10FD50007B681B881A1CBB689B1800221A7019E06C
:10FD60007B681B881A1CBB689B1801221A7011E063
:10FD70007B681B881A1CBB689B1802221A7009E05A
:10FD80007B681B881A1CBB689B1803221A7001E051
:10FD9000072306E07B681B8801339AB27B681A80D0
:10FDA0000023181CBD4604B080BDC04680B588B095
:10FDB00000AFF860B960BB1D1A80BB681B880933AF
:10FDC0001A1CBB1D1B889A4201D90C2353E0142333
:10FDD000FB18181CFFF7F6FE031CFB61FB69002BE8
:10FDE00001D0FB6947E0BB681B881A1CFB689B18A5
:10FDF00008221A70BB681B8801339AB2BB681A804C
:10FE0000BB681B881A1CFB689B181B221A70BB68F6
:10FE10001B8801339AB2BB681A80BB681B881A1C06
:10FE2000FB689A181423FB180133101C191C0622B6
:10FE300001F066FFBB681B8806339AB2BB681A8064
:10FE40001423FB181B78002B07D1BB681B881A1CD6
:10FE5000FB689B1800221A7006E0BB681B881A1CFE
:10FE6000FB689B1801221A70BB681B8801339AB289
:10FE7000BB681A800023181CBD4608B080BDC04670
:10FE800080B588B000AFF860B9607A601A1CBB1CFE
:10FE90001A80FB681B78012B05D1FB685B78002B6F
:10FEA00001D1072399E07B681B889A1CBB1C1B8827
:10FEB0009A420ED8FB681B78012B0CD17B681B88FB
:10FEC0001A1CFB685B78D3189A1CBB1C1B889A42CF
:10FED00001D90C2381E07B681B88BA1C1288D31AD5
:10FEE0009AB21C23FB18023A1A801623FB181C2214
:10FEF000BA1812881A807B681B880233BA68D21835
:10FF00001623FB18101C191CFFF768FE031CBB61AD
:10FF1000BB69002B01D0BB695FE0FB681B78022B3B
:10FF20000CD11623FB181B881C22BA1812889A427F
:10FF300004D31F23FB1809221A701CE01F23FB188F
:10FF400008221A70FB681B78012B0ED1FB685B78C6
:10FF50009BB21C22BA1812889A4206D3FB685B78BF
:10FF60009AB21623FB181A8005E01623FB181C22F0
:10FF7000BA1812881A801623FB181B88FE2B01D989
:10FF80000C232AE07B681B881A1CBB689B1816226E
:10FF9000BA181288D2B20132D2B21A707B681B88AA
:10FFA00001339AB27B681A807B681B881A1CBB6875
:10FFB0009B181F22BA1812781A707B681B880133AD
:10FFC0009AB27B681A807B681A881623FB181B88F4
:10FFD000D3189AB27B681A800023181CBD4608B05B
:10FFE00080BDC04680B586B000AFF860B960BB1D6B
:10FFF0001A80BB681B881A1DBB1D1B889A4201D939
:020000022000DC
:100000000C233BE01223FB18181CFFF7E3FD031C35
:100010007B617B69002B01D07B692FE0BB681B886B
:100020001A1CFB689B1803221A70BB681B880133DB
:100030009AB2BB681A80BB681B881A1CFB689B18A5
:1000400019221A70BB681B8801339AB2BB681A80E8
:100050001223FB181A88BB681B88191CFB685B18E5
:10006000101C191CFFF7C2FD031C191CBB681A8861
:100070008BB2D3189AB2BB681A800023181CBD46F5
:1000800006B080BD80B584B000AFB9607A60191C3D
:100090000F23FB18021C1A700C23FB180A1C1A8071
:1000A0007B681B88DA1C0C23FB181B889A4201D939
:1000B0000C2329E07B681B881A1CBB689B18022252
:1000C0001A707B681B8801339AB27B681A807B6840
:1000D0001B881A1CBB689B1801221A707B681B883E
:1000E00001339AB27B681A807B681B881A1CBB6834
:1000F0009B180F22BA1812781A707B681B8801337C
:100100009AB27B681A800023181CBD4604B080BDDB
:1001100080B584B000AFB9607A60191C0F23FB185A
:10012000021C1A700C23FB180A1C1A807B681B889F
:10013000DA1C0C23FB181B889A4201D90C2329E0F6
:100140007B681B881A1CBB689B1802221A707B688C
:100150001B8801339AB27B681A807B681B881A1C43
:10016000BB689B1811221A707B681B8801339AB2F6
:100170007B681A807B681B881A1CBB689B180F223F
:10018000BA1812781A707B681B8801339AB27B68A0
:100190001A800023181CBD4604B080BD80B584B011
:1001A00000AFB9607A60191C0F23FB18021C1A708B
:1001B0000C23FB180A1C1A807B681B88DA1C0C2392
:1001C000FB181B889A4201D90C2329E07B681B8805
:1001D0001A1CBB689B1802221A707B681B880133AB
:1001E0009AB27B681A807B681B881A1CBB689B18B4
:1001F0000A221A707B681B8801339AB27B681A80C6
:100200007B681B881A1CBB689B180F22BA181278CF
:100210001A707B681B8801339AB27B681A800023AE
:10022000181CBD4604B080BD80B58AB000AFF86030
:10023000081C111C7B600B23FB18021C1A700A237C
:10024000FB180A1C1A702323FB1800221A702023A3
:10025000FB183A6B12881A8000237B6286E0FB68E9
:100260005A687B6A9B00D3181022BA18111C1A1CFA
:100270000423081C111C1A1C01F042FD1023FA185B
:100280001723FB18101C191C0022FFF7ABFC031CE2
:10029000FB61FB69002B01D0FB6990E01723FB1881
:1002A0001B780A22BA1812789A425CD12323FB18D1
:1002B0001B78002B01D0002200E002221B23FB1838
:1002C0001A703B6B1B881A1C1723FB181B78D2185B
:1002D0001B23FB181B78D2183423FB181B889A4267
:1002E00001DD0C236BE02323FB181B780122534014
:1002F000DBB2002B18D03B6B1B8801339AB23B6BEF
:100300001A803B6B1B881A1C7B689B180B22BA183F
:1003100012781A703B6B1B8801339AB23B6B1A80C0
:100320002323FB1801221A703B6B1B881A1C7B6865
:100330009B181022B9181722BA18081C111C1A1C75
:10034000FFF750FC031CFB61FB69002B01D0FB692C
:1003500035E03B6B1A881723FB181B789BB2D31828
:100360009AB23B6B1A807B6A01337B62FB681B8805
:100370001A1E7B6A9A4200DD71E72323FB181B7863
:10038000002B1BD03B6B1A882023FB181B88D31A29
:100390009AB21823FB18013A1A801823FB181B88FD
:1003A000FF2B01D90C230AE02023FB181B887A6855
:1003B000D3181822BA181288D2B21A700023181C47
:1003C000BD460AB080BDC04690B589B002AFF860A6
:1003D000081C111C7B600B23FB18021C1A700A23DB
:1003E000FB180A1C1A70F9680B23FB181A787C6832
:1003F000BB6A00932C23FB181B880193081C111C5B
:100400000222231CFFF710FF031C7B617B69002B7A
:1004100001D07B6918E0F9680A23FB181A787C6818
:10042000BB6A00932C23FB181B880193081C111C2A
:100430001022231CFFF7F8FE031C7B617B69002B55
:1004400001D07B6900E00023181CBD4607B090BDB9
:1004500080B582B000AF78607B681B88052B0AD915
:100460007B681A88C8231B019A4206D97B681B88BF
:10047000164A934201D0072323E07B685B88052B53
:100480000AD97B685A88C8231B019A4206D97B681F
:100490005B880E4A934201D0072312E07B681B88D9
:1004A0000A4A93420CD07B685B88084A934207D083
:1004B0007B681A887B685B889A4201D9072300E031
:1004C0000023181CBD4602B080BDC046FFFF0000DF
:1004D00080B586B000AFF860B9607A601A1CBB1CAA
:1004E0001A807B681B889A1DBB1C1B889A4201D905
:1004F0000C234DE0FB68181CFFF7AAFF031C7B616F
:100500007B69002B01D07B6942E07B681B881A1C49
:10051000BB689B1805221A707B681B8801339AB24E
:100520007B681A807B681B881A1CBB689B18122288
:100530001A707B681B8801339AB27B681A80FB684B
:100540001A887B681B88191CBB685B18101C191C57
:10055000FFF74CFB031C191C7B681A888BB2D3185D
:100560009AB27B681A80FB685A887B681B88191CC2
:10057000BB685B18101C191CFFF738FB031C191C07
:100580007B681A888BB2D3189AB27B681A800023D2
:10059000181CBD4606B080BD80B586B000AFF860BF
:1005A000B9607A601A1CBB1C1A80FB689B880233F6
:1005B0007B617B681B881A1C7B69D3189A1CBB1C47
:1005C0001B889A4201D90C2356E07B69FE2B01D986
:1005D0000C2351E07B681B881A1CBB689B187A6946
:1005E000D2B20132D2B21A707B681B8801339AB240
:1005F0007B681A807B681B881A1CBB689B18FF22CB
:100600001A707B681B8801339AB27B681A80FB687A
:100610001A887B681B88191CBB685B18101C191C86
:10062000FFF7E4FA031C191C7B681A888BB2D318F5
:100630009AB27B681A80FB689B88002B1BD0FB68F2
:100640009B68002B01D1072316E07B681B881A1CCE
:10065000BB689918FB689A68FB689B88081C111C8A
:100660001A1C01F04DFB7B681A88FB689B88D31825
:100670009AB27B681A800023181CBD4606B080BD64
:1006800080B588B000AFF860B9607A601A1CBB1CF6
:100690001A80FB689B6A002B01D107237AE01F2395
:1006A000FB1800221A706BE0FB68996A1F23FB1885
:1006B0001A78131C5B009B189B00CB18BB61BB69AD
:1006C0009B8802337B617B69FE2B01D90C2361E09F
:1006D0007B681B881A1CBB689B187A69D2B20132EE
:1006E000D2B21A707B681B8801339AB27B681A8079
:1006F0007B681B881A1CBB689B1816221A707B68C3
:100700001B8801339AB27B681A80BB691A887B68A0
:100710001B88191CBB685B18101C191CFFF766FAB4
:10072000031C191C7B681A888BB2D3189AB27B6899
:100730001A80BB699B88002B1BD0BB699B68002B70
:1007400001D1072326E07B681B881A1CBB68991817
:10075000BB699A68BB699B88081C111C1A1C01F0B4
:10076000CFFA7B681A88BB699B88D3189AB27B68DA
:100770001A801F23FB181A781F23FB1801321A70E6
:10078000FB682C229B5C1F22BA1812789A4200D276
:100790008AE70023181CBD4608B080BD90B589B01B
:1007A00002AFF860B9607A6000237B611223FB1806
:1007B0007A6812881A807B6800221A80FB685B6B5B
:1007C000002B10D0FB685B6B1878B9687A6812232D
:1007D000FB181B88FFF79CFC031C7B617B69002BCB
:1007E00001D07B6921E1FB681B6B002B0FD0FB68FC
:1007F000186BB9687A681223FB181B88FFF710FA88
:10080000031C7B617B69002B01D07B690DE1FB68D8
:100810002E229B5C002B10D0FB682E22985CB968BE
:100820007A681223FB181B88FFF752FA031C7B61BE
:100830007B69002B01D07B69F7E0FB682D229B5C74
:10084000002B10D0B9687A681223FB181B88081C8B
:10085000111C1A1CFFF7AAFA031C7B617B69002B91
:1008600001D07B69E1E0FB689B78002B10D0B96870
:100870007A681223FB181B88081C111C1A1CFFF72E
:10088000B1FB031C7B617B69002B01D07B69CCE051
:10089000FB68DB78002B11D0FB68DB78DBB258B249
:1008A000B9687A681223FB181B88FFF7EBFB031C5F
:1008B0007B617B69002B01D07B69B6E0FB685B68DC
:1008C000002B11D0FB685B681B7858B2B9687A6856
:1008D0001223FB181B88FFF761FC031C7B617B69FB
:1008E000002B01D07B69A0E0FB681B89002B16D090
:1008F000FB6808331A1CBC687B6800931223FB1842
:100900001B880193101C02210622231CFFF75CFDAB
:10091000031C7B617B69002B01D07B6985E0FB6850
:100920001B8A002B16D0FB6810331A1CBC687B682E
:1009300000931223FB181B880193101C032107222C
:10094000231CFFF741FD031C7B617B69002B01D059
:100950007B696AE0FB681B8B002B16D0FB681833A1
:100960001A1CBC687B6800931223FB181B88019338
:10097000101C14211522231CFFF726FD031C7B618C
:100980007B69002B01D07B694FE0FB681B6A002B61
:100990000FD0FB68186AB9687A681223FB181B88A5
:1009A000FFF796FD031C7B617B69002B01D07B69FF
:1009B0003BE0FB685B6A002B0FD0FB68586AB968A4
:1009C0007A681223FB181B88FFF7E6FD031C7B6186
:1009D0007B69002B01D07B6927E0FB682C229B5CA4
:1009E000002B0ED0F868B9687A681223FB181B88B0
:1009F000FFF746FE031C7B617B69002B01D07B69FE
:100A000013E0FB681B78002B0ED0F868B9687A6891
:100A10001223FB181B88FFF733FA031C7B617B69E9
:100A2000002B01D07B6900E07B69181CBD4607B034
:100A300090BDC04680B582B000AF78607B68DB783F
:100A40001A1C0423134001D1072300E00023181CC3
:100A5000BD4602B080BDC04680B582B000AF7860B0
:100A60007B68DB78002B01D0072300E00023181CF3
:100A7000BD4602B080BDC04680B596B000AF78607C
:100A800039604A23FB181F221A804823FB181F22B3
:100A90001A807B68002B1FD07B68181CFFF7CAFFE9
:100AA000031CFB64FB6C002B01D0FB6C50E07968ED
:100AB0002823FA184A23FB18081C111C1A1CFFF7DC
:100AC0006DFE031CFB64FB6C002B01D0FB6C3FE054
